{
  "contractName": "PinkShop",
  "abi": [
    {
      "anonymous": false,
      "inputs": [
        {
          "indexed": false,
          "internalType": "uint256",
          "name": "id",
          "type": "uint256"
        }
      ],
      "name": "LogSold",
      "type": "event"
    },
    {
      "anonymous": false,
      "inputs": [
        {
          "indexed": true,
          "internalType": "address",
          "name": "previousOwner",
          "type": "address"
        },
        {
          "indexed": true,
          "internalType": "address",
          "name": "newOwner",
          "type": "address"
        }
      ],
      "name": "OwnershipTransferred",
      "type": "event"
    },
    {
      "inputs": [
        {
          "internalType": "uint256",
          "name": "",
          "type": "uint256"
        }
      ],
      "name": "customers",
      "outputs": [
        {
          "internalType": "address",
          "name": "",
          "type": "address"
        }
      ],
      "stateMutability": "view",
      "type": "function",
      "constant": true
    },
    {
      "inputs": [
        {
          "internalType": "uint256",
          "name": "",
          "type": "uint256"
        }
      ],
      "name": "items",
      "outputs": [
        {
          "internalType": "uint256",
          "name": "id",
          "type": "uint256"
        },
        {
          "internalType": "uint256",
          "name": "price",
          "type": "uint256"
        },
        {
          "internalType": "address payable",
          "name": "buyer",
          "type": "address"
        }
      ],
      "stateMutability": "view",
      "type": "function",
      "constant": true
    },
    {
      "inputs": [],
      "name": "owner",
      "outputs": [
        {
          "internalType": "address",
          "name": "",
          "type": "address"
        }
      ],
      "stateMutability": "view",
      "type": "function",
      "constant": true
    },
    {
      "inputs": [],
      "name": "renounceOwnership",
      "outputs": [],
      "stateMutability": "nonpayable",
      "type": "function"
    },
    {
      "inputs": [
        {
          "internalType": "address",
          "name": "newOwner",
          "type": "address"
        }
      ],
      "name": "transferOwnership",
      "outputs": [],
      "stateMutability": "nonpayable",
      "type": "function"
    },
    {
      "inputs": [
        {
          "internalType": "uint256",
          "name": "_itemId",
          "type": "uint256"
        },
        {
          "internalType": "uint256",
          "name": "_price",
          "type": "uint256"
        }
      ],
      "name": "buyItem",
      "outputs": [
        {
          "internalType": "uint256",
          "name": "",
          "type": "uint256"
        }
      ],
      "stateMutability": "payable",
      "type": "function",
      "payable": true
    },
    {
      "inputs": [],
      "name": "getInventory",
      "outputs": [
        {
          "components": [
            {
              "internalType": "uint256",
              "name": "id",
              "type": "uint256"
            },
            {
              "internalType": "uint256",
              "name": "price",
              "type": "uint256"
            },
            {
              "internalType": "address payable",
              "name": "buyer",
              "type": "address"
            }
          ],
          "internalType": "struct PinkShop.Item[16]",
          "name": "",
          "type": "tuple[16]"
        }
      ],
      "stateMutability": "view",
      "type": "function",
      "constant": true
    },
    {
      "inputs": [],
      "name": "getCustomers",
      "outputs": [
        {
          "internalType": "address[16]",
          "name": "",
          "type": "address[16]"
        }
      ],
      "stateMutability": "view",
      "type": "function",
      "constant": true
    }
  ],
  "bytecode": "0x608060405234801561001057600080fd5b5061003f61002b610044640100000000026401000000009004565b61004c640100000000026401000000009004565b610110565b600033905090565b60008060009054906101000a900473ffffffffffffffffffffffffffffffffffffffff169050816000806101000a81548173ffffffffffffffffffffffffffffffffffffffff021916908373ffffffffffffffffffffffffffffffffffffffff1602179055508173ffffffffffffffffffffffffffffffffffffffff168173ffffffffffffffffffffffffffffffffffffffff167f8be0079c531659141344cd1fd0a4f28419497f9722a3daafe3b4186f6b6457e060405160405180910390a35050565b6110428061011f6000396000f3fe608060405260043610610098576000357c010000000000000000000000000000000000000000000000000000000090048063bfb231d21161006b578063bfb231d21461013a578063c0abda2a14610179578063f1ba7127146101b6578063f2fde38b146101e157610098565b80635d7f850c1461009d578063715018a6146100c85780638da5cb5b146100df5780639979c0091461010a575b600080fd5b3480156100a957600080fd5b506100b261020a565b6040516100bf9190610b04565b60405180910390f35b3480156100d457600080fd5b506100dd610342565b005b3480156100eb57600080fd5b506100f46103ca565b6040516101019190610b41565b60405180910390f35b610124600480360381019061011f9190610b8d565b6103f3565b6040516101319190610bdc565b60405180910390f35b34801561014657600080fd5b50610161600480360381019061015c9190610bf7565b610679565b60405161017093929190610c33565b60405180910390f35b34801561018557600080fd5b506101a0600480360381019061019b9190610bf7565b6106c9565b6040516101ad9190610b41565b60405180910390f35b3480156101c257600080fd5b506101cb6106ff565b6040516101d89190610d15565b60405180910390f35b3480156101ed57600080fd5b5061020860048036038101906102039190610d5d565b610780565b005b610212610944565b61021a610878565b73ffffffffffffffffffffffffffffffffffffffff166102386103ca565b73ffffffffffffffffffffffffffffffffffffffff161461028e576040517f08c379a000000000000000000000000000000000000000000000000000000000815260040161028590610de7565b60405180910390fd5b6011601080602002604051908101604052809291906000905b828210156103395783826003020160405180606001604052908160008201548152602001600182015481526020016002820160009054906101000a900473ffffffffffffffffffffffffffffffffffffffff1673ffffffffffffffffffffffffffffffffffffffff1673ffffffffffffffffffffffffffffffffffffffff1681525050815260200190600101906102a7565b50505050905090565b61034a610878565b73ffffffffffffffffffffffffffffffffffffffff166103686103ca565b73ffffffffffffffffffffffffffffffffffffffff16146103be576040517f08c379a00000000000000000000000000000000000000000000000000000000081526004016103b590610de7565b60405180910390fd5b6103c86000610880565b565b60008060009054906101000a900473ffffffffffffffffffffffffffffffffffffffff16905090565b60008180341015610439576040517f08c379a000000000000000000000000000000000000000000000000000000000815260040161043090610e53565b60405180910390fd5b836042600082815260200190815260200160002060009054906101000a900460ff161561049b576040517f08c379a000000000000000000000000000000000000000000000000000000000815260040161049290610ebf565b60405180910390fd5b84600081101580156104ae5750600f8111155b6104ed576040517f08c379a00000000000000000000000000000000000000000000000000000000081526004016104e490610f2b565b60405180910390fd5b60405180606001604052808781526020018681526020013373ffffffffffffffffffffffffffffffffffffffff168152506011876010811061053257610531610f4b565b5b60030201600082015181600001556020820151816001015560408201518160020160006101000a81548173ffffffffffffffffffffffffffffffffffffffff021916908373ffffffffffffffffffffffffffffffffffffffff16021790555090505033600187601081106105a9576105a8610f4b565b5b0160006101000a81548173ffffffffffffffffffffffffffffffffffffffff021916908373ffffffffffffffffffffffffffffffffffffffff1602179055506105f06103ca565b73ffffffffffffffffffffffffffffffffffffffff166108fc349081150290604051600060405180830381858888f19350505050158015610635573d6000803e3d6000fd5b507fe64ca8c671e48636f85f3008c1dd538e36bfa74fb6f2790b56b72fcc33b879ef866040516106659190610bdc565b60405180910390a185935050505092915050565b6011816010811061068957600080fd5b600302016000915090508060000154908060010154908060020160009054906101000a900473ffffffffffffffffffffffffffffffffffffffff16905083565b600181601081106106d957600080fd5b016000915054906101000a900473ffffffffffffffffffffffffffffffffffffffff1681565b610707610972565b6001601080602002604051908101604052809291908260108015610776576020028201915b8160009054906101000a900473ffffffffffffffffffffffffffffffffffffffff1673ffffffffffffffffffffffffffffffffffffffff168152602001906001019080831161072c575b5050505050905090565b610788610878565b73ffffffffffffffffffffffffffffffffffffffff166107a66103ca565b73ffffffffffffffffffffffffffffffffffffffff16146107fc576040517f08c379a00000000000000000000000000000000000000000000000000000000081526004016107f390610de7565b60405180910390fd5b600073ffffffffffffffffffffffffffffffffffffffff168173ffffffffffffffffffffffffffffffffffffffff16141561086c576040517f08c379a000000000000000000000000000000000000000000000000000000000815260040161086390610fec565b60405180910390fd5b61087581610880565b50565b600033905090565b60008060009054906101000a900473ffffffffffffffffffffffffffffffffffffffff169050816000806101000a81548173ffffffffffffffffffffffffffffffffffffffff021916908373ffffffffffffffffffffffffffffffffffffffff1602179055508173ffffffffffffffffffffffffffffffffffffffff168173ffffffffffffffffffffffffffffffffffffffff167f8be0079c531659141344cd1fd0a4f28419497f9722a3daafe3b4186f6b6457e060405160405180910390a35050565b6040518061020001604052806010905b61095c610995565b8152602001906001900390816109545790505090565b604051806102000160405280601090602082028036833780820191505090505090565b60405180606001604052806000815260200160008152602001600073ffffffffffffffffffffffffffffffffffffffff1681525090565b600060109050919050565b600081905092915050565b6000819050919050565b6000819050919050565b6109ff816109ec565b82525050565b600073ffffffffffffffffffffffffffffffffffffffff82169050919050565b6000610a3082610a05565b9050919050565b610a4081610a25565b82525050565b606082016000820151610a5c60008501826109f6565b506020820151610a6f60208501826109f6565b506040820151610a826040850182610a37565b50505050565b6000610a948383610a46565b60608301905092915050565b6000602082019050919050565b610ab6816109cc565b610ac081846109d7565b9250610acb826109e2565b8060005b83811015610afc578151610ae38782610a88565b9650610aee83610aa0565b925050600181019050610acf565b505050505050565b600061060082019050610b1a6000830184610aad565b92915050565b6000610b2b82610a05565b9050919050565b610b3b81610b20565b82525050565b6000602082019050610b566000830184610b32565b92915050565b600080fd5b610b6a816109ec565b8114610b7557600080fd5b50565b600081359050610b8781610b61565b92915050565b60008060408385031215610ba457610ba3610b5c565b5b6000610bb285828601610b78565b9250506020610bc385828601610b78565b9150509250929050565b610bd6816109ec565b82525050565b6000602082019050610bf16000830184610bcd565b92915050565b600060208284031215610c0d57610c0c610b5c565b5b6000610c1b84828501610b78565b91505092915050565b610c2d81610a25565b82525050565b6000606082019050610c486000830186610bcd565b610c556020830185610bcd565b610c626040830184610c24565b949350505050565b600060109050919050565b600081905092915050565b6000819050919050565b610c9381610b20565b82525050565b6000610ca58383610c8a565b60208301905092915050565b6000602082019050919050565b610cc781610c6a565b610cd18184610c75565b9250610cdc82610c80565b8060005b83811015610d0d578151610cf48782610c99565b9650610cff83610cb1565b925050600181019050610ce0565b505050505050565b600061020082019050610d2b6000830184610cbe565b92915050565b610d3a81610b20565b8114610d4557600080fd5b50565b600081359050610d5781610d31565b92915050565b600060208284031215610d7357610d72610b5c565b5b6000610d8184828501610d48565b91505092915050565b600082825260208201905092915050565b7f4f776e61626c653a2063616c6c6572206973206e6f7420746865206f776e6572600082015250565b6000610dd1602083610d8a565b9150610ddc82610d9b565b602082019050919050565b60006020820190508181036000830152610e0081610dc4565b9050919050565b7f6e6f7420656e6f756768206d6f6e65792073656e640000000000000000000000600082015250565b6000610e3d601583610d8a565b9150610e4882610e07565b602082019050919050565b60006020820190508181036000830152610e6c81610e30565b9050919050565b7f6974656d20616c726561647920736f6c64000000000000000000000000000000600082015250565b6000610ea9601183610d8a565b9150610eb482610e73565b602082019050919050565b60006020820190508181036000830152610ed881610e9c565b9050919050565b7f6974656d20646f65736e27542065786973740000000000000000000000000000600082015250565b6000610f15601283610d8a565b9150610f2082610edf565b602082019050919050565b60006020820190508181036000830152610f4481610f08565b9050919050565b7f4e487b7100000000000000000000000000000000000000000000000000000000600052603260045260246000fd5b7f4f776e61626c653a206e6577206f776e657220697320746865207a65726f206160008201527f6464726573730000000000000000000000000000000000000000000000000000602082015250565b6000610fd6602683610d8a565b9150610fe182610f7a565b604082019050919050565b6000602082019050818103600083015261100581610fc9565b905091905056fea2646970667358221220ac7cd30f51e7915100f1331638222d25523525f117d5edcaa9a92d6d2e1b012864736f6c634300080a0033",
  "immutableReferences": {},
  "source": "// SPDX-License-Identifier: MIT\r\npragma solidity 0.8.10;\r\n\r\nimport \"@openzeppelin/contracts/access/Ownable.sol\";\r\n\r\ncontract PinkShop is Ownable {\r\n    struct Item {\r\n        uint256 id;\r\n        uint256 price;\r\n        address payable buyer;\r\n    }\r\n\r\n    address[16] public customers;\r\n    Item[16] public items;\r\n\r\n    mapping(uint256 => address) itemToOwner;\r\n    mapping(uint256 => bool) soldItems;\r\n\r\n    modifier paidEnough(uint256 _price) {\r\n        require(msg.value >= _price, \"not enough money send\");\r\n        _;\r\n    }\r\n\r\n    modifier itemNotSold(uint256 _id) {\r\n        require(!soldItems[_id], \"item already sold\");\r\n        _;\r\n    }\r\n    modifier itemExists(uint256 _itemId) {\r\n        require(_itemId >= 0 && _itemId <= 15, \"item doesn'T exist\");\r\n        _;\r\n    }\r\n\r\n    // <LogSold event: id arg>\r\n    event LogSold(uint256 id);\r\n\r\n    // Adopting a pet\r\n    function buyItem(uint256 _itemId, uint256 _price)\r\n        public\r\n        payable\r\n        paidEnough(_price)\r\n        itemNotSold(_itemId)\r\n        itemExists(_itemId)\r\n        returns (uint256)\r\n    {\r\n        items[_itemId] = Item({\r\n            id: _itemId,\r\n            price: _price,\r\n            buyer: payable(msg.sender)\r\n        });\r\n        customers[_itemId] = msg.sender;\r\n        payable(owner()).transfer(msg.value);\r\n        emit LogSold(_itemId);\r\n        return _itemId;\r\n    }\r\n\r\n    // Retrieving the items\r\n    function getInventory() public view onlyOwner returns (Item[16] memory) {\r\n        return items;\r\n    }\r\n\r\n    // Retrieving the customers\r\n    function getCustomers() public view returns (address[16] memory) {\r\n        return customers;\r\n    }\r\n}\r\n",
  "sourcePath": "/Users/lenahierzi/Developer/final-project/sarah/my-brand/contracts/PinkShop.sol",
  "compiler": {
    "name": "solc",
    "version": "0.8.10+commit.fc410830.Emscripten.clang"
  },
  "schemaVersion": "3.4.3",
  "updatedAt": "2022-01-16T07:30:38.183Z",
  "networkType": "ethereum",
  "devdoc": {
    "kind": "dev",
    "methods": {
      "owner()": {
        "details": "Returns the address of the current owner."
      },
      "renounceOwnership()": {
        "details": "Leaves the contract without owner. It will not be possible to call `onlyOwner` functions anymore. Can only be called by the current owner. NOTE: Renouncing ownership will leave the contract without an owner, thereby removing any functionality that is only available to the owner."
      },
      "transferOwnership(address)": {
        "details": "Transfers ownership of the contract to a new account (`newOwner`). Can only be called by the current owner."
      }
    },
    "version": 1
  },
  "userdoc": {
    "kind": "user",
    "methods": {},
    "version": 1
  }
}