{
  "contractName": "PinkShop",
  "abi": [
    {
      "inputs": [
        {
          "internalType": "uint256",
          "name": "",
          "type": "uint256"
        }
      ],
      "name": "customers",
      "outputs": [
        {
          "internalType": "address",
          "name": "",
          "type": "address"
        }
      ],
      "stateMutability": "view",
      "type": "function"
    },
    {
      "inputs": [
        {
          "internalType": "uint256",
          "name": "order",
          "type": "uint256"
        }
      ],
      "name": "numberOfOrders",
      "outputs": [
        {
          "internalType": "uint256",
          "name": "",
          "type": "uint256"
        }
      ],
      "stateMutability": "nonpayable",
      "type": "function"
    },
    {
      "inputs": [],
      "name": "getOrders",
      "outputs": [
        {
          "internalType": "address[10]",
          "name": "",
          "type": "address[10]"
        }
      ],
      "stateMutability": "view",
      "type": "function"
    }
  ],
  "bytecode": "0x608060405234801561001057600080fd5b50610529806100206000396000f3fe608060405234801561001057600080fd5b506004361061005e576000357c0100000000000000000000000000000000000000000000000000000000900480632e2dc43e14610063578063928eb7f214610081578063c0abda2a146100b1575b600080fd5b61006b6100e1565b6040516100789190610349565b60405180910390f35b61009b600480360381019061009691906103a0565b610162565b6040516100a891906103dc565b60405180910390f35b6100cb60048036038101906100c691906103a0565b610213565b6040516100d89190610406565b60405180910390f35b6100e9610249565b6000600a806020026040519081016040528092919082600a8015610158576020028201915b8160009054906101000a900473ffffffffffffffffffffffffffffffffffffffff1673ffffffffffffffffffffffffffffffffffffffff168152602001906001019080831161010e575b5050505050905090565b600081600081101580156101775750600a8111155b6101b6576040517f08c379a00000000000000000000000000000000000000000000000000000000081526004016101ad906104a4565b60405180910390fd5b33600084600a81106101cb576101ca6104c4565b5b0160006101000a81548173ffffffffffffffffffffffffffffffffffffffff021916908373ffffffffffffffffffffffffffffffffffffffff16021790555082915050919050565b600081600a811061022357600080fd5b016000915054906101000a900473ffffffffffffffffffffffffffffffffffffffff1681565b604051806101400160405280600a90602082028036833780820191505090505090565b6000600a9050919050565b600081905092915050565b6000819050919050565b600073ffffffffffffffffffffffffffffffffffffffff82169050919050565b60006102b78261028c565b9050919050565b6102c7816102ac565b82525050565b60006102d983836102be565b60208301905092915050565b6000602082019050919050565b6102fb8161026c565b6103058184610277565b925061031082610282565b8060005b8381101561034157815161032887826102cd565b9650610333836102e5565b925050600181019050610314565b505050505050565b60006101408201905061035f60008301846102f2565b92915050565b600080fd5b6000819050919050565b61037d8161036a565b811461038857600080fd5b50565b60008135905061039a81610374565b92915050565b6000602082840312156103b6576103b5610365565b5b60006103c48482850161038b565b91505092915050565b6103d68161036a565b82525050565b60006020820190506103f160008301846103cd565b92915050565b610400816102ac565b82525050565b600060208201905061041b60008301846103f7565b92915050565b600082825260208201905092915050565b7f5468697320697320746865206d6178696d756d206e756d626572206f66206f7260008201527f6465727320706572206461790000000000000000000000000000000000000000602082015250565b600061048e602c83610421565b915061049982610432565b604082019050919050565b600060208201905081810360008301526104bd81610481565b9050919050565b7f4e487b7100000000000000000000000000000000000000000000000000000000600052603260045260246000fdfea2646970667358221220716ba62ff3a32b82ec715c5bea78bb4fab19668e6e73592972168ca97526a04964736f6c634300080a0033",
  "immutableReferences": {},
  "source": "// SPDX-License-Identifier: MIT\r\npragma solidity ^0.8.0;\r\n\r\ncontract PinkShop {\r\n    address[10] public customers;\r\n\r\n    modifier cakeOrders(uint256 _order) {\r\n        require(\r\n            _order >= 0 && _order <= 10,\r\n            \"This is the maximum number of orders per day\"\r\n        );\r\n        _;\r\n    }\r\n\r\n    /// Customer places an order\r\n\r\n    function numberOfOrders(uint256 order)\r\n        public\r\n        cakeOrders(order)\r\n        returns (uint256)\r\n    {\r\n        customers[order] = msg.sender;\r\n\r\n        return order;\r\n    }\r\n\r\n    /// Order comfirmation\r\n    function getOrders() public view returns (address[10] memory) {\r\n        return customers;\r\n    }\r\n}\r\n",
  "sourcePath": "/home/starlight/DEVELOPER/pink-shop/contracts/pink-shop.sol",
  "compiler": {
    "name": "solc",
    "version": "0.8.10+commit.fc410830.Emscripten.clang"
  },
  "schemaVersion": "3.4.4",
  "updatedAt": "2022-01-15T17:20:19.330Z",
  "devdoc": {
    "kind": "dev",
    "methods": {},
    "version": 1
  },
  "userdoc": {
    "kind": "user",
    "methods": {
      "getOrders()": {
        "notice": "Order comfirmation"
      },
      "numberOfOrders(uint256)": {
        "notice": "Customer places an order"
      }
    },
    "version": 1
  }
}